:100000000C94BF240C94F0240C94F0240C94F02451
:100010000C94F0240C94F0240C94F0240C94F02410
:100020000C94F0240C94F0240C94F0240C94F02400
:100030000C94F0240C9419F10C94F0240C94F024FA
:100040000C94F0240C94207D0C94F0240C94F02457
:100050000C94F0240C94F0240C94007B0C9404EB8E
:100060000C94F0240C9433DA0C94F0240C94F024C7
:100070000C94F0240C94F0240C94F0240C94F024B0
:100080000C94F0240C94F0240C94F0240C94F024A0
:100090000C94F0240C94F0240C94F0240C94F3E3CE
:1000A0000C94F0240C94F0240C94F0240C94F02480
:1000B0000C94F0240C94F0240C94F0240C94F02470
:1000C0000C94F0240C94F0240C94F0240C94F02460
:1000D0000C94F0240C94F0240C94F0240C94F02450
:1000E0000C94F0245A7B687B847B927BAC7BBA7B3C
:1000F000D47BD87BE07B06C206C211C211C211C2FA
:100100001CC21CC21CC231C227C227C227C218ECA3
:100110001BEC0EEC12EC52EC1FEC23EC29EC2DEC5A
:1001200031EC37EC3BEC3FEC52EC45EC49EC4DEC60
:100130000DED12ED17ED21ED9AED2BED33ED3BEDCD
:1001400045ED4FED59ED68ED72ED9AED7CED86EDE4
:1001500090ED084AD73B3BCE016E84BCBFFDC12F5A
:100160003D6C74319ABD56833DDA3D00C77F11BEA8
:10017000D9E4BB4C3E916BAAAABE000000803F05AB
:10018000A84CCDB2D44EB93836A9020C50B99186DC
:1001900088083CA6AAAA2ABE000000803F436172DC
:1001A000642072656D6F76656400436172642069D6
:1001B0006E736572746564005900B02000B0200051
:1001C000B02000B020002D2D3A2D2D004D363030BE
:1001D000004368616E67652066696C616D656E7469
:1001E00000466C6F7700466C6F770046616E207337
:1001F000706565640046616E2073706565640042D9
:10020000656400426564004E6F7A7A6C6532004E18
:100210006F7A7A6C6532004E6F7A7A6C65004E6F39
:100220007A7A6C6500537065656400537065656427
:10023000004D61696E00580059005A00457874728B
:1002400075646572004578747275646572004D6FEF
:100250007665205A004D6F76652059004D6F7665A2
:100260002058004D6F76652041786973004D6F7698
:100270006520302E316D6D004D6F766520316D6DCE
:10028000004D6F76652031306D6D00507265706184
:100290007265004D6F7665204178697300436F6F1A
:1002A0006C646F776E0050726568656174204142BE
:1002B000530050726568656174204849505300507E
:1002C00072656865617420504C41005072656865C4
:1002D00061742054505500473238004175746F20C6
:1002E000486F6D65004D38340044697361626C6518
:1002F000205374657070657273004D61696E0053B0
:10030000746F7265206D656D6F727900426564006F
:10031000426564004E6F7A7A6C65004E6F7A7A6C33
:10032000650046616E2073706565640046616E20ED
:1003300073706565640054656D7065726174757283
:10034000650053746F7265206D656D6F7279004240
:10035000656400426564004E6F7A7A6C65004E6F8A
:100360007A7A6C650046616E20737065656400463C
:10037000616E2073706565640054656D70657261AF
:10038000747572650053746F7265206D656D6F7260
:10039000790042656400426564004E6F7A7A6C654C
:1003A000004E6F7A7A6C650046616E2073706565E9
:1003B000640046616E2073706565640054656D70FD
:1003C000657261747572650053746F7265206D6536
:1003D0006D6F72790042656400426564004E6F7A09
:1003E0007A6C65004E6F7A7A6C650046616E207398
:1003F000706565640046616E2073706565640054C5
:10040000656D7065726174757265005072656865BE
:1004100061742041425320436F6E660050726568DC
:10042000656174204849505320436F6E66005072D6
:10043000656865617420504C4120436F6E660050C2
:100440007265686561742054505520436F6E660074
:100450005049442D43005049442D43005049442DF8
:1004600044005049442D44005049442D490050490E
:10047000442D49005049442D50005049442D50000E
:1004800020022046616374002002204661637400EC
:100490002002204D6178002002204D61780020026A
:1004A000204D696E002002204D696E004F66660087
:1004B0004F6E20004F6666004F6E20004175746FCE
:1004C00074656D700046616E2073706565640046EA
:1004D000616E207370656564004265640042656406
:1004E000004E6F7A7A6C6532004E6F7A7A6C6532A4
:1004F000004E6F7A7A6C65004E6F7A7A6C650043B5
:100500006F6E74726F6C004531737470732F6D6D04
:10051000004531737470732F6D6D00457374657091
:10052000732F6D6D004573746570732F6D6D005A78
:1005300073746570732F6D6D005A73746570732FCB
:100540006D6D005973746570732F6D6D0059737400
:100550006570732F6D6D005873746570732F6D6DBA
:10056000005873746570732F6D6D00412D72657442
:100570007261637400412D7265747261637400412D
:100580006D6178206500416D6178206500416D6185
:1005900078207A00416D6178207A00416D61782081
:1005A0007900416D6178207900416D617820780093
:1005B000416D61782078005654726176206D696EC5
:1005C000005654726176206D696E00566D696E003A
:1005D000566D696E00566D6178206500566D6178C4
:1005E000206500566D6178207A00566D6178207A1A
:1005F00000566D6178207900566D6178207900563B
:100600006D6178207800566D617820780056652DF0
:100610006A65726B0056652D6A65726B00567A2D9D
:100620006A65726B00567A2D6A65726B005678792E
:100630002D6A65726B005678792D6A65726B004180
:100640006363656C00416363656C005A204F6666A6
:10065000736574005A204F666673657400436F6E4D
:1006600074726F6C00526573746F726520466169B5
:100670006C73616665004C6F6164206D656D6F72AF
:10068000790053746F7265206D656D6F7279004DDE
:100690006F74696F6E0054656D7065726174757208
:1006A00065004D61696E004D383420582059205A3C
:1006B0002045004D3234004D323320257300F92E91
:1006C0002E004D61696E004E6F20436172640050D0
:1006D00072696E742066726F6D2053440053746F9C
:1006E00070205072696E7400526573756D6520508C
:1006F00072696E74005061757365205072696E7412
:1007000000436F6E74726F6C005072657061726539
:100710000054756E6500496E666F2073637265657F
:100720006E000000000000000000000000007FFFDD
:10073000E00000000000000000000000007000E089
:1007400000000000000000000000000061F86000F0
:10075000000000000000000000000041F820000040
:100760000000000000000000000040F02000000039
:1007700000000000000000000040602000000000B9
:1007800000000000000000005801A07F80003FC072
:10079000003FC0004104005C63A0FBC00079E000A2
:1007A00079E0002082005EF7A0F3C00076E00076DA
:1007B000E0002082005EF7A0EBC0007EE0007EE05B
:1007C000004104005C63A07B80003DC00039C00094
:1007D0008208005801A07B80003BC0003EC001049D
:1007E0001000406020FBC00077E00076E0010410BC
:1007F0000040F020FBC00070E00079E000820800BB
:1008000041F820FFC0007FE0007FE000410400616C
:10081000F8603F00001F80001F8000000000700093
:10082000E01E00000F00000F0001FFFF807FFFE0CF
:100830000C0000060000060001FFFF800000000021
:1008400000000000000000000000007FFFE000004A
:10085000000000000000000000007000E000000048
:10086000000000000000000000630C6000000000B9
:100870000000000000000000470E20000000000003
:10088000000000000000004F0F20000000000000EA
:100890000000000000005F0FA0000000000000004A
:1008A00000000000005E07A07F80003FC0003FC046
:1008B00000410400406020FBC00079E00079E000C6
:1008C00020820040F020F3C00076E00076E00020B7
:1008D000820040F020EBC0007EE0007EE00041049A
:1008E000004060207B80003DC00039C000820800CD
:1008F0005E07A07B80003BC0003EC0010410005F8B
:100900000FA0FBC00077E00076E0010410004F0F5D
:1009100020FBC00070E00079E000820800470E2054
:10092000FFC0007FE0007FE000410400630C603FF7
:1009300000001F80001F80000000007000E01E000B
:10094000000F00000F0001FFFF807FFFE00C0000A0
:10095000060000060001FFFF80000000000000000C
:100960000000000000000000000000000000000087
:100970000000000000000000000000000000000C6B
:10098000000000000000000C000000000000001249
:100990000000000000000023000000000000002113
:1009A000000000000000004C800000000000005E1D
:1009B000800000000000009240000000000000A144
:1009C0004000000000000121200000000000027F24
:1009D000900000000000020010000000000007FF6F
:1009E000F8000000000004000800000000000800FB
:1009F00004000000000008000600000000001000D5
:100A0000020000000000301E010000000000207FF6
:100A100081000000000041FFE0800000000043FC76
:100A2000F08000000000873B7840000000018EDB72
:100A3000FC60000000010FEBCC20000000021FED65
:100A4000B610000000021FDEB6100000000439CD11
:100A50007F080000000436E0FF08000000087EC0A8
:100A6000BB84000000187F005D86000000107FC07E
:100A7000ED82000000203CC07301000000203B33E9
:100A80007F01000000701BE77E03800000C81DEEA0
:100A9000DE04C00000880FDEDC04400001240FDF0C
:100AA0003C092000012607DBF8192000027203E749
:100AB000F0139000025101FFE02290000489007FB2
:100AC000802448000904801E004824000BFE4000DA
:100AD00000DFF40010004000008002001FFFFFFF55
:100AE000FFFFFE000000000000000000000000000A
:100AF0000000000000000000000000001022103C78
:100B00003C0E1F00102210042211040010221008B5
:100B100022110400102210083C11040010221010B1
:100B20002211040010221020221104001E1C1E3C61
:100B30003C0E040000000000000000000000000067
:100B400000000000000000000000000000000000A5
:100B50000000000000000000000000000000000095
:100B60000000000000000000000000000000000085
:100B70000000000000000000000000000000000075
:100B80000000000000000000000000000000000065
:100B90000000000000000000000000060900FE0741
:100BA0000199032B20FFFE08FE07FE00000006004F
:100BB0000001070706020080808080800080030318
:100BC00003060104A0A0A00507070600005050F886
:100BD00050F850500507070600002070A0702870DC
:100BE0002005070706000048A8502050A8900507D8
:100BF0000706000040A0A040A89068010303060279
:100C00000480808003070706010020408080804028
:100C100020030707060100804020202040800505B2
:100C2000050600018850F8508805050506000120DA
:100C300020F820200303030601FF60408005010126
:100C4000060003F80303030601FF40E04005070721
:100C500006000008081020408080050707060000F5
:100C6000205088888850200507070600002060A0D3
:100C7000202020F805070706000070880830408013
:100C8000F8050707060000F8081030088870050707
:100C90000706000010305090F810100507070600F6
:100CA00000F880B0C80888700507070600003040CB
:100CB00080B0C88870050707060000F808101020EB
:100CC0004040050707060000708888708888700516
:100CD0000707060000708898680810600307070679
:100CE00001FF40E0400040E0400307070601FF40ED
:100CF000E0400060408004070706010010204080AB
:100D0000402010050303060002F800F80407070658
:100D10000100804020102040800507070600007079
:100D2000881020200020050707060000708898A87A
:100D3000B0807005070706000020508888F8888872
:100D4000050707060000F04848704848F005070707
:100D50000600007088808080887005070706000004
:100D6000F04848484848F0050707060000F880802A
:100D7000F08080F8050707060000F88080F080808A
:100D80008005070706000070888080988870050736
:100D900007060000888888F8888888030707060106
:100DA00000E04040404040E00507070600003810E2
:100DB00010101090600507070600008890A0C0A0E2
:100DC0009088050707060000808080808080F805F5
:100DD00007070600008888D8A888888805070706BE
:100DE00000008888C8A89888880507070600007052
:100DF000888888888870050707060000F08888F0D2
:100E00008080800508080600FF7088888888A870A0
:100E100008050707060000F08888F0A090880507FD
:100E200007060000708880700888700507070600B4
:100E300000F82020202020200507070600008888D1
:100E400088888888700507070600008888885050C1
:100E50005020050707060000888888A8A8D88805BC
:100E60000707060000888850205088880507070675
:100E7000000088885020202020050707060000F881
:100E80000810204080F8030707060100E0808080FA
:100E90008080E005070706000080804020100808D9
:100EA000030707060100E02020202020E0050303BF
:100EB0000600042050880501010600FFF802020226
:100EC000060206804005050506000070087888784F
:100ED0000507070600008080B0C888C8B005050572
:100EE0000600007088808870050707060000080863
:100EF00068988898680505050600007088F8807075
:100F0000050707060000304840F04040400507074D
:100F10000600FE78888878088870050707060000B4
:100F20008080B0C88888880307070601004000C099
:100F3000404040E00409090601FE10003010101086
:100F400090906005070706000080808890E09088F8
:100F5000030707060100C04040404040E00505058A
:100F6000060000D0A8A8A888050505060000B0C89E
:100F70008888880505050600007088888870050740
:100F8000070600FEB0C888C8B080800507070600C5
:100F9000FE68988898680808050505060000B0C82E
:100FA00080808005050506000070807008F0050748
:100FB000070600004040F0404048300505050600A7
:100FC00000888888986805050506000088885050C4
:100FD000200505050600008888A8A8500505050617
:100FE000000088502050880507070600FE88889872
:100FF00068088870050505060000F8102040F80410
:101000000707060100304020C020403001070706D6
:10101000020080808080808080040707060100C075
:101020002040304020C005030306000448A890007B
:1010300000000100000000000100000000000100AD
:10104000000000000100000000000100000000009E
:10105000010000000000010000000000010000008D
:10106000000001000000000001000000000001007D
:10107000000000000100000000000100000000006E
:10108000010000000000010000000000010000005D
:10109000000001000000000001000000000001004D
:1010A000000000000100000000000100000000003E
:1010B000010000000000010000000000010000002D
:1010C000000001000000000001000000000001001D
:1010D000000000000100000000000100000000000E
:1010E00001000000000001000000000001000000FD
:1010F00000000100000000000600000107070602D2
:1011000000800080808080800507070600FF20782F
:10111000A0A0A07820050707060000304840E04066
:1011200048B005050506000088705070880508085D
:101130000600FF88885020F82020200107070602BB
:1011400000808080008080800508080600FF708095
:10115000E09048380870030101060107A005070761
:101160000600007088A8C8A8887004060606010159
:101170007090B05000F00605050600002448904825
:1011800024040202060102F010040101060103F02A
:101190000507070600007088E8C8C88870050101C7
:1011A000060007F803030306010440A040050606F5
:1011B0000600002020F82020F80405050601036041
:1011C000902040F0040505060103E0106010E002E5
:1011D000020206020640800506060600FF8888888F
:1011E000C8B08005070706000078E8E868282828C6
:1011F000010101060203800202020602FE40800392
:10120000050506010340C04040E004060606010152
:101210006090906000F006050506000090482448A4
:10122000900609090600FF40C04040E40C143C044D
:101230000609090600FF40C04040E81404081C05E8
:1012400009090600FFC0204020C8182878080507B3
:1012500007060000200020204088700508080600CE
:10126000004020708888F88888050808060000106B
:1012700020708888F88888050808060000205070CB
:101280008888F8888805080806000048B0708888B3
:10129000F888880508080600005000708888F888DB
:1012A000880508080600002050708888F88888069D
:1012B00007070600003C50909CF0909C0509090629
:1012C00000FE708880808088702040050808060035
:1012D0000040F88080F08080F805080806000010C3
:1012E000F88080F08080F805080806000020F8806B
:1012F00080F08080F805080806000050F88080F033
:101300008080F80308080601008040E0404040402B
:10131000E00308080601002040E040404040E003B0
:10132000080806010040A0E040404040E0030808F3
:10133000060100A000E040404040E005070706002D
:1013400000F04848E84848F0050808060000285022
:1013500088C8A8988888050808060000402070887A
:101360008888887005080806000010207088888822
:1013700088700508080600002050708888888870EA
:1013800005080806000028507088888888700508BD
:1013900008060000500070888888887005050506DA
:1013A00000008850205088050707060000709898B4
:1013B000A8C8C870050808060000402088888888EA
:1013C00088700508080600001020888888888870C2
:1013D00005080806000020500088888888700508E5
:1013E000080600005000888888888870050808066C
:1013F00000001020888850202020050707060000E4
:1014000080F088F0808080050707060000708890D3
:10141000A09088B0050808060000402000700878F9
:101420008878050808060000102000700878887881
:101430000508080600002050007008788878050824
:10144000080600002850007008788878050707060D
:101450000000500070087888780508080600002011
:101460005020700878887806050506000078147CFE
:10147000907C0507070600FE708880887020400574
:1014800008080600004020007088F88070050808F1
:101490000600001020007088F8807005080806001B
:1014A000002050007088F880700507070600005083
:1014B000007088F88070030808060100804000C0B2
:1014C000404040E0030808060100408000C0404062
:1014D00040E003080806010040A000C0404040E092
:1014E000060A0A0600FEA4A800FC8480808084FC12
:1014F000060A0A0600FE549400FC8404040484FCDA
:10150000050808060000285000B0C888888805082B
:10151000080600004020007088888870040A0A06C7
:1015200002FE30408090909090909090040A0A06BD
:1015300000FEC020109090909090909006070706B3
:101540000001448C8C8480403C060707060001881B
:10155000C4C4840408F00505050600012000F80055
:101560002005080806000040F0C888889878100513
:101570000808060000E0F88888888888F8050505CE
:101580000600012030F83020050808060000207011
:10159000F820202020E00509090600FF2070A8A8F7
:1015A000B8888850200509090600FFE080C0B0A86F
:1015B000A83028280509090600FFF8A88888888827
:1015C00088A8F8050A0A0600FE205050505088A846
:1015D000A8887000060900FE06018902FE20FFFEB1
:1015E00007FE06FE000000060007010606060200D0
:1015F000808080800080030303060103A0A0A00573
:1016000007070600FF5050F850F85050050909062A
:1016100000FE2070A8A07028A87020060808060008
:10162000FF40A84810204854080507070600FF603F
:101630009090609890680103030602038080800206
:1016400007070602FF40808080808040020707066F
:1016500002FF8040404040408005050506000088AC
:1016600050F850880505050600002020F8202002CB
:1016700004040602FEC0404080050101060002F895
:10168000020202060200C0C0040606060100101095
:1016900020408080040606060100609090909060D3
:1016A00003060606010040C0404040E0040606066E
:1016B00001006090102040F0040606060100F020B2
:1016C000601010E005060606000010305090F8107B
:1016D000040606060100F080E01010E0040606068D
:1016E00001006080E0909060040606060100F010A2
:1016F0001020404004060606010060906090906053
:101700000406060601006090907010600205050650
:101710000200C0C000C0C00207070602FEC0C00031
:10172000C04040800505050600001860806018056F
:101730000303060001F800F8050505060000C030A7
:101740000830C004070706010060901060400040A8
:101750000506060600007090A8B080700506060613
:101760000000205088F88888050606060000F088EA
:10177000F08888F004060606010060908080906082
:10178000040606060100E090909090E0040606062C
:101790000100F080E08080F0040606060100F08081
:1017A000E0808080040606060100609080B09060B2
:1017B0000406060601009090F0909090030606063D
:1017C0000100E040404040E00506060600003810F9
:1017D0001010906004060606010090A0C0A0909032
:1017E0000406060601008080808080F0050606065B
:1017F000000088D8A8A8888804060606010090D0B2
:10180000B090909005060606000070888888887061
:10181000040606060100E09090E0808004070706B9
:1018200001FF609090D0B06010040606060100E051
:101830009090E09090040606060100609040209091
:1018400060050606060000F8202020202004060679
:1018500006010090909090906004060606010090AA
:101860009090F060600506060600008888A8A8D859
:1018700088050606060000885020205088050606C8
:10188000060000888850202020040606060100F08B
:1018900010204080F0030606060100E08080808072
:1018A000E0040606060100808040201010030606B2
:1018B000060100E020202020E005030306000320AD
:1018C00050880501010600FEF802020206020480AB
:1018D000400404040601007090907004060606019E
:1018E000008080E09090E004040406010070808095
:1018F0007004060606010010107090907004040435
:1019000006010060B0C070040606060100205040C9
:10191000E040400406060601FE60909070106004EE
:1019200006060601008080E09090900306060601FE
:10193000004000C04040E00308080601FE200060AF
:10194000202020A0400406060601008080A0C0A040
:1019500090030606060100C040404040E005040434
:10196000060000D0A8A888040404060100E09090B6
:1019700090040404060100609090600406060601CD
:10198000FEE09090E080800406060601FE709090D4
:10199000701010040404060100A0D0808004040428
:1019A00006010070C030E00406060601004040E079
:1019B0004050200404040601009090907004040438
:1019C0000601009090606005040406000088A8A845
:1019D00050040404060100906060900406060601AD
:1019E000FE909090709060040404060100F0204086
:1019F000F003070706010020404080404020010717
:101A0000070602FF80808080808080030707060130
:101A1000008040402040408004020206010350A0A4
:101A2000FFFFFFFFFFFFFFFFFFFFFFFFFFFFFFFFC6
:101A3000FFFFFFFFFFFFFFFFFFFFFFFFFFFFFFFFB6
:101A4000FF00000006000701060606020080008075
:101A50008080800406060601FF2070A0A07020058B
:101A600007070600FF304840F04040F8050505062E
:101A70000000A8508850A80506060600008850F807
:101A800020F8200107070602FF8080800080808008
:101A90000407070601FF708060906010E0030101F9
:101AA000060105A0060707060000788494A4948424
:101AB0007803050506010160A06000E00505050644
:101AC00000002850A05028040303060100F0101065
:101AD000040101060102F00607070600007884B43D
:101AE000A4A48478040101060105F004030306019F
:101AF000026090600507070600FF2020F820200004
:101B0000F803050506010140A02040E00305050695
:101B10000101C0204020C0020202060204408004ED
:101B200005050601FF9090B0D0800506060600006E
:101B300078E8E86828280101010602028002020212
:101B40000602FE408003050506010140C04040E05A
:101B500003050506010140A04000E005050506005B
:101B600000A0502850A00508080600FF40C04050C3
:101B7000703078100508080600FF40C04050680823
:101B800010380508080600FFC0204030F0307810FB
:101B90000407070601002000206080906005070709
:101BA00006000040202050708888050707060000C6
:101BB000102020507088880507070600002050205C
:101BC000507088880507070600002850205070884C
:101BD0008805070706000050002050708888050718
:101BE0000706000020502050708888050606060071
:101BF0000078A0F0A0A0B80408080601FE6090805C
:101C000080906020400407070601004020F080E03B
:101C100080F00407070601002040F080E080F00417
:101C200007070601002050F080E080F00407070657
:101C300001005000F080E080F003070706010080FB
:101C400040E0404040E00307070601002040E0403C
:101C50004040E003070706010040A0E0404040E0AC
:101C6000030707060100A000E0404040E00506062B
:101C70000600007048E84848700407070601005055
:101C8000A090D0B09090040707060100402060901B
:101C900090906004070706010020406090909060DB
:101CA0000407070601002050609090906004070729
:101CB00006010050A06090909060040707060100A4
:101CC0005000609090906005050506000088502047
:101CD00050880408080601FF1070B0B0D0D0E08032
:101CE00004070706010040209090909060040707C9
:101CF00006010020409090909060040707060100C4
:101D000020509090909060040707060100500090CA
:101D10009090906005070706000010208850202052
:101D20002004060606010080E09090E0800406068C
:101D30000601006090A0A090A004070706010040E3
:101D4000200070909070040707060100204000708A
:101D5000909070040707060100205000709090706A
:101D600004070706010050A000709090700406065A
:101D700006010050007090907004070706010020D3
:101D800050207090907005040406000070A8B07890
:101D90000406060601FE70808070204004070706D6
:101DA000010040200060B0C0700407070601002059
:101DB000400060B0C07004070706010020500060BA
:101DC000B0C070040606060100500060B0C0700389
:101DD0000707060100804000C04040E003070706F7
:101DE0000100204000C04040E0030707060100401A
:101DF000A000C04040E0030606060100A000C0406D
:101E000040E0040707060100306010709090600405
:101E1000070706010050A000E09090900407070615
:101E20000100402000609090600407070601002038
:101E30004000609090600407070601002050006099
:101E400090906004070706010050A0006090906029
:101E50000406060601005000609090600505050626
:101E600000002000F8002004040406010070B0D037
:101E7000E0040707060100402000909090700407DE
:101E800007060100204000909090700407070601AB
:101E9000002050009090907004060606010050004B
:101EA000909090700409090601FE204000909090E7
:101EB0007090600408080601FE8080E09090E08049
:101EC000800408080601FE500090909070906045D4
:101ED00072723A204D415854454D502042454400BD
:101EE00054656D70657261747572652068656174A2
:101EF0006564206265642073776974636865642033
:101F00006F66662E204D415854454D5020747269BD
:101F1000676765726564202121004572723A204D21
:101F2000494E54454D50003A2045787472756465A9
:101F300072207377697463686564206F66662E200B
:101F40004D494E54454D50207472696767657265FE
:101F5000642021004572723A204D415854454D503D
:101F6000003A2045787472756465722073776974DD
:101F700063686564206F66662E204D415854454D58
:101F80005020747269676765726564202100202D96
:101F900020496E76616C6964206578747275646539
:101FA00072206E756D626572202100504944204197
:101FB00075746F74756E652066696E6973686564A3
:101FC000212050757420746865204B702C204B695B
:101FD00020616E64204B6420636F6E7374616E7455
:101FE0007320696E746F20436F6E666967757261E6
:101FF00074696F6E2E6800504944204175746F7487
:10200000756E65206661696C6564212074696D6513
:102010006F75740020403A006F6B20543A006F6B6C
:1020200020423A00504944204175746F74756E65C2
:10203000206661696C6564212054656D706572610C
:102040007475726520746F6F206869676800204B33
:10205000643A2000204B693A2000204B703A20005F
:1020600020436C61736963205049442000205475FB
:102070003A2000204B753A2000206D61783A20000C
:10208000206D696E3A200020643A20002062696168
:10209000733A20004572726F723A001000AD03303F
:1020A000016A0150022B0170030A019004F500B08F
:1020B00005E500D006D800F007CE001009C50030B5
:1020C0000ABE00500BB700700CB100900DAB00B011
:1020D0000EA600D00FA200F0109D00101299003043
:1020E0001395005014920070158E0090168B00B05E
:1020F000178700D0188400F0198100101B7E003073
:102100001C7B00501D7900701E7600901F7300B07C
:10211000207000D0216E00F0226B00102469003086
:10212000256600502663007027610090285E00B08D
:10213000295C00D02A5900F02B5600102D54003095
:102140002E5100502F4E0070304B0090314800B09F
:10215000324500D0334200F0343E0010363B0030B0
:102160003737005038330070392E00903A2900B0CC
:102170003B2300D03C1B00F03D1100103F0100F05C
:102180003F000045313A200045303A20005A3A20BD
:1021900000593A2000583A20004D53312C4D53320B
:1021A0002050696E730A00656E6473746F707320DB
:1021B0006869743A205A00205A3A00656E64737454
:1021C0006F7073206869743A20590020593A00658D
:1021D0006E6473746F7073206869743A20580020BD
:1021E000583A00656E6473746F7073206869743A4E
:1021F000200024F4D43050C38E20C2A24017828B1A
:102200007011127A910D816CD90AA861E108C75842
:102210006607615143061E4B5D05C145A7041A417F
:102220001104093D9803713931034036DB026533EF
:102230009102D4305402802E1D02632CEE01752AC7
:10224000C501B028A001102781018F2564012B242E
:102250004B01E0223401AC211F018D200D01801FB4
:10226000FC00841EED00971DDF00B81CD200E61BA9
:10227000C600201BBC00641AB200B219A8000A19DB
:10228000A0006A189900D117910040178B00B5166D
:10229000840031167E00B31579003A157300C71417
:1022A0006F0058146A00EE1366008813630025134C
:1022B0005E00C7125B006C12570015125400C1116A
:1022C000510070114F0021114B00D61049008D10A4
:1022D00047004610440002104200C00F4000800F2B
:1022E0003E00420F3C00060F3B00CB0E3800930E21
:1022F00037005C0E3500270E3400F30D3200C10D9F
:102300003100900D3000600D2E00320D2D00050DB6
:102310002C00D90C2B00AE0C2900850C29005C0C7C
:102320002700350C27000E0C2600E80B2400C40BF8
:102330002400A00B23007D0B23005A0B2100390B36
:102340002100180B2000F80A1F00D90A1E00BB0A42
:102350001E009D0A1D00800A1D00630A1C00470A1A
:102360001B002C0A1B00110A1A00F7091A00DD09CC
:102370001900C4091900AB091900920917007B095B
:102380001800630917004C091600360916002009C9
:1023900016000A091500F5081500E0081400CC081D
:1023A0001400B8081400A4081400900813007D0855
:1023B00012006B0813005808120046081200340877
:1023C0001100230811001208110001081100F00784
:1023D0001000E0071000D0071000C0071000B00781
:1023E0000F00A107100091070E0083070F0074076C
:1023F0000F0065070E0057070E0049070E003B0748
:102400000D002E070E0020070D0013070D00060714
:102410000D00F9060C00ED060D00E0060C00D406D8
:102420000C00C8060C00BC060C00B0060C00A4068C
:102430000B0099060C008D060B0082060B00770638
:102440000B006C060B0061060A0057060B004C06D9
:102450000A0042060A0038060A002E060A00240670
:102460000A001A060A001006090007060A00FD0500
:102470000900F4050900EB050900E2050900D9058A
:102480000900D0050900C7050900BE050900B5050A
:102490000800AD050800A50509009C050800940585
:1024A00008008C050800840508007C0508007405F8
:1024B00008006C050700650508005D050700560566
:1024C00008004E05070047050700400508003805CD
:1024D0000700310507002A050700230507001C0532
:1024E0000600160507000F0507000805060002058F
:1024F0000700FB040600F5040700EE040600E804EC
:102500000600E2040700DB040600D5040600CF0441
:102510000600C9040600C3040600BD040600B70493
:102520000600B1040500AC040600A6040600A004E1
:1025300005009B04060095040500900406008A042B
:10254000050085040500800406007A040500750472
:102550000500700405006B040500660405006104B5
:1025600005005C04050057040500520405004D04F5
:10257000050048040500430405003E0404003A0435
:10258000050035040500300404002C040500270470
:102590000400230405001E0404001A0404001604A9
:1025A0000500110404000D040400090405000404DE
:1025B000040000040400FC030400F8030400F40316
:1025C0000400F0030400EC030400E8030400E40347
:1025D0000400E0030400DC030400D8030400D40377
:1025E0000400D0030400CC030400C8030300C503A7
:1025F000030024F404D9201BC40C5C0E9804C40905
:102600005F0265077101F405F900FB04B30048049B
:102610008700C10369005803550003034500BE024B
:102620003A008402310053022A00290225000402E4
:102630002000E4011C00C8011900AF011700980137
:102640001400840113007101100061011000510198
:102650000E0043010D0036010B002B010B00200181
:102660000B00150109000C01090003010800FB0023
:102670000800F3000800EB000700E4000600DE009D
:102680000600D8000600D2000600CC000500C700F6
:102690000500C2000500BD000400B9000400B5003B
:1026A0000400B1000400AD000400A9000400A5006E
:1026B0000300A20003009F0004009B000300980099
:1026C00003009500020093000300900003008D00BA
:1026D00002008B00030088000200860002008400D4
:1026E0000300810002007F0002007D0002007B00E9
:1026F00002007900020077000100760002007400F9
:10270000020072000100710002006F0002006D0003
:1027100001006C0002006A0001006900020067000D
:102720000100660001006500010064000200620013
:10273000010061000100600001005F0002005D0017
:1027400001005C0001005B0001005A00010059001B
:10275000010058000100570001005600010055001B
:10276000010054000100530000005300010052001A
:10277000010051000100500001004F0001004E0017
:1027800000004E0001004D0001004C0001004B0014
:1027900000004B0001004A00010049000100480010
:1027A000000048000100470001004600000046000C
:1027B0000100450000004500010044000100430005
:1027C00000004300010042000000420001004100FF
:1027D000000041000100400001003F0000003F00F8
:1027E00001003E0000003E0001003D0000003D00F1
:1027F00001003C0000003C0000003C0001003B00E8
:1028000000003B0001003A0000003A0001003900DE
:1028100000003900010038000000380000003800D6
:1028200001003700000037000100360000003600CC
:1028300000003600010035000000350000003500C2
:1028400001003400000034000000340001003300B7
:1028500000003300000033000100320000003200AD
:1028600000003200010031000000310000003100A2
:1028700001003000000030000000300001002F0097
:1028800000002F0000002F0000002F0001002E008C
:1028900000002E0000002E0001002D0000002D0081
:1028A00000002D0000002D0001002C0000002C0075
:1028B00000002C0000002C0001002B0000002B0069
:1028C00000002B0000002B0001002A0000002A005D
:1028D00000002A0000002A00010029000000290051
:1028E0000000290000002900000029000100280044
:1028F0000000280000002800000028000000280038
:10290000010027000000270000002700000027002A
:10291000000027000100260000002600000026001D
:102920000000260000002600010025000000250010
:102930000000250000002500000025000000250003
:1029400001002400000024000000240000002400F6
:1029500000002400010023000000230000002300E9
:1029600000002300000023000000230000002300DB
:1029700001002200000022000000220000002200CE
:1029800000002200000022000100210000002100C0
:1029900000002100000021000000210000002100B3
:1029A00000002100010020000000200000002000A5
:1029B0000000200000002000000020000000200097
:1029C0000000200001001F0000001F0000001F0089
:1029D00000001F0000001F0000001F0000001F007B
:1029E00001001E0000001E0000001E0000001E006E
:1029F00000006563686F3A0020746F6F206C6F6E23
:102A00006720657874727573696F6E207072657671
:102A1000656E7465640020636F6C64206578747201
:102A20007573696F6E2070726576656E746564008B
:102A30006563686F3A004D383420582059205A2079
:102A4000450043616E6E6F7420656E74657220730D
:102A500075626469723A20004D3234004D32332081
:102A60002573006175746F25692E67006572726F3A
:102A7000722077726974696E6720746F2066696C62
:102A800065004E6F74205344207072696E74696ED5
:102A900067002F005344207072696E74696E67205E
:102AA0006279746520002E0044656C6574696F6EF0
:102AB000206661696C65642C2046696C653A20006B
:102AC00046696C652064656C657465643A002E0027
:102AD0006F70656E206661696C65642C2046696C58
:102AE000653A200057726974696E6720746F2066BA
:102AF000696C653A20002E006F70656E2066616912
:102B00006C65642C2046696C653A20002E006F705D
:102B1000656E206661696C65642C2046696C653A57
:102B2000200046696C652073656C6563746564009C
:102B30002053697A653A200046696C65206F70659C
:102B40006E65643A20002E006F70656E20666169C4
:102B50006C65642C2046696C653A20004E6F7720C6
:102B600066726573682066696C653A20004E6F77FF
:102B700020646F696E672066696C653A20002220C8
:102B8000706F73002220706172656E743A22005378
:102B90005542524F5554494E452043414C4C2074A8
:102BA00061726765743A2200747279696E67207485
:102BB0006F2063616C6C207375622D67636F646551
:102BC0002066696C6573207769746820746F6F2064
:102BD0006D616E79206C6576656C732E204D415861
:102BE000206C6576656C2069733A005344206361FC
:102BF0007264206F6B006F70656E526F6F74206629
:102C000061696C656400766F6C756D652E696E69BF
:102C100074206661696C656400534420696E697450
:102C2000206661696C006563686F3A004572726F77
:102C3000723A007C3C3E5E2B3D3F2F5B5D3B2C2A75
:102C4000225C0053544F505045442E20005072696E
:102C50006E7465722073746F70706564206475653E
:102C600020746F206572726F72732E20466978200F
:102C7000746865206572726F7220616E642075736E
:102C800065204D39393920746F2072657374617213
:102C9000742E202854656D7065726174757265209C
:102CA00069732072657365742E205365742069748E
:102CB0002061667465722072657374617274696EE6
:102CC0006729004B494C4C45442E20005072696ED8
:102CD0007465722068616C7465642E206B696C6C1D
:102CE00028292063616C6C656421006F6B0052655C
:102CF00073656E643A20002200556E6B6E6F776EBE
:102D000020636F6D6D616E643A2022004368616ECE
:102D100067652066696C616D656E74006C63642024
:102D2000636F6E74726173742076616C75653A209E
:102D3000007A5F6D696E3A2000795F6D696E3A20A6
:102D400000785F6D696E3A20005A3A00593A0020C7
:102D5000436F756E7420583A2000453A005A3A0085
:102D6000593A00583A004649524D574152455F4E34
:102D7000414D453A4D61726C696E2056313B20538E
:102D80007072696E7465722F6772626C206D617308
:102D900068757020666F722067656E3620464952EE
:102DA0004D574152455F55524C3A687474703A2FF2
:102DB0002F7777772E6D656E64656C2D70617274F8
:102DC000732E636F6D2050524F544F434F4C5F56DC
:102DD000455253494F4E3A312E30204D41434849D8
:102DE0004E455F545950453A466C657879205441B8
:102DF0005A20352045585452554445525F434F554B
:102E00004E543A3120555549443A30303030303004
:102E100030302D303030302D303030302D303030BB
:102E2000302D3030303030303030303030300A00FB
:102E3000466C6578792054415A2035204F66662EBD
:102E400000466C6578792054415A203520526561DE
:102E500064792E0042656420646F6E652E00204206
:102E60003A0020453A00543A0042656420486561C2
:102E700074696E672E0048656174696E6720646FBF
:102E80006E652E0020573A0020453A00543A00481B
:102E9000656174696E672E2E2E002042403A002034
:102EA000403A00202F003A00205400202F002042FA
:102EB0003A00202F006F6B20543A002569206D697D
:102EC0006E2C2025692073656300456E6420666959
:102ED0006C65206C69737400426567696E20666971
:102EE0006C65206C697374004E6F206D6F76652E73
:102EF00000526573756D696E67207072696E74003B
:102F00005761697420666F7220757365722E2E2E5C
:102F100000536C6565702E2E2E00256920686F7534
:102F20007273202569206D696E7574657300446F36
:102F30006E65207072696E74696E672066696C6573
:102F40000053544F505045442E20005072696E7407
:102F500065722073746F7070656420647565207489
:102F60006F206572726F72732E20466978207468C4
:102F700065206572726F7220616E642075736520C2
:102F80004D39393920746F20726573746172742EF3
:102F9000202854656D70657261747572652069735F
:102FA0002072657365742E205365742069742061E6
:102FB000667465722072657374617274696E6729D4
:102FC000006F6B004E6F204C696E65204E756D6210
:102FD0006572207769746820636865636B73756DCB
:102FE0002C204C617374204C696E653A20004E6F42
:102FF00020436865636B73756D2077697468206C16
:10300000696E65206E756D6265722C204C617374FB
:10301000204C696E653A2000636865636B73756D5B
:10302000206D69736D617463682C204C617374202A
:103030004C696E653A20004C696E65204E756D6274
:103040006572206973206E6F74204C617374204C1C
:10305000696E65204E756D6265722B312C204C6156
:103060007374204C696E653A20004D313130004454
:103070006F6E6520736176696E672066696C652E78
:10308000006F6B004D3239002020506C616E6E6510
:103090007242756666657242797465733A200020E3
:1030A00046726565204D656D6F72793A20004170FA
:1030B00072203234203230313500436F6D70696CCC
:1030C00065643A200028416C657068204F626A652B
:1030D0006374732C20496E632C20466C65787920CC
:1030E00054415A203520636F6E6669672900207C41
:1030F00020417574686F723A20004170722032343A
:1031000020323031352031313A30343A32370020F4
:103110004C61737420557064617465643A200031A9
:103120002E302E30004D61726C696E200020536F7E
:10313000667477617265205265736574002057610B
:10314000746368646F67205265736574002042720F
:103150006F776E206F75742052657365740020451B
:10316000787465726E616C20526573657400506F7F
:103170007765725570007374617274002200656E19
:10318000717565696E672022002200656E71756534
:10319000696E67202200FFFFFF0000A0400000A032
:1031A0004000008040000095430080894300007A81
:1031B0004300000000000000000000000000009537
:1031C000430080894300007A4300000000000000B3
:1031D00000000000006563686F3A004572726F720C
:1031E0003A0048617264636F646564204465666197
:1031F000756C742053657474696E6773204C6F61CD
:103200006465640053746F726564207365747469D7
:103210006E67732072657472696576656400204418
:10322000002049002020204D3330312050005049EB
:10323000442073657474696E67733A00205A0020E5
:10324000590020204D323036205800486F6D6520DF
:103250006F666673657420286D6D293A00204500FD
:10326000205A0020580020420020540020204D32D7
:103270003035205300416476616E63656420766169
:10328000726961626C65733A20533D4D696E2066C8
:103290006565647261746520286D6D2F73292C201B
:1032A000543D4D696E2074726176656C206665656B
:1032B000647261746520286D6D2F73292C20423D46
:1032C0006D696E696D756D207365676D656E7420CF
:1032D00074696D6520286D73292C20583D6D6178C7
:1032E000696D756D205859206A65726B20286D6D67
:1032F0002F73292C20205A3D6D6178696D756D20E2
:103300005A206A65726B20286D6D2F73292C20203E
:10331000453D6D6178696D756D2045206A65726BFC
:1033200020286D6D2F73290020540020204D32304D
:1033300034205300416363656C65726174696F6E1C
:103340003A20533D616363656C65726174696F6EA9
:103350002C20543D726574726163742061636365EF
:103360006C65726174696F6E00204500205A002000
:10337000590020204D3230312058004D6178696D60
:10338000756D20416363656C65726174696F6E2051
:10339000286D6D2F7332293A00204500205A0020F5
:1033A000590020204D3230332058004D6178696D2E
:1033B000756D2066656564726174657320286D6D36
:1033C0002F73293A0020453100204500205A002063
:1033D000590020204D3932205800537465707320F5
:1033E00070657220756E69743A0053657474696E05
:1033F00067732053746F726564006563686F3A0089
:1034000001050800FF060121023520FFFF07FF0626
:10341000FF090050221656808080800080153353AB
:10342000A0A0A00257575050F850F85050025757DC
:103430002070A07028702013355580A040A0200275
:10344000475740A0A040A0A0502513538080801271
:103450002656408080808040122656804040404062
:10346000800245559060F060900255552020F8206C
:1034700020113353604080044151F011335340E038
:103480004002465610102040808012365640A0A0C0
:10349000A0A04012365640C0404040E00246566070
:1034A00090106080F0024656F02060109060024656
:1034B000562060A0F02020024656F080E010906078
:1034C0000246566080E0909060024656F010202040
:1034D0004040024656609060909060024656609070
:1034E00090701060122555C0C000C0C011365660E3
:1034F00060006040801236562040808040200343A8
:1035000053F000F01236568040202040801236568C
:1035100040A020400040015858304898A8A890404A
:1035200030024656609090F09090024656E090E04F
:103530009090E0024656609080809060024656E08F
:1035400090909090E0024656F080E08080F0024635
:1035500056F080E0808080024656609080B0906097
:103560000246569090F0909090123656E0404040BF
:1035700040E002465670202020A04002465690A00F
:10358000C0A0A0900246568080808080F0024656FF
:1035900090F0F090909002465690D0F0B0B090022B
:1035A0004656609090909060024656E09090E08081
:1035B00080014757609090D0B06010024656E0906E
:1035C00090E09090024656609040209060123656EF
:1035D000E0404040404002465690909090906002FB
:1035E0004656909090906060024656909090F0F011
:1035F000900246569090606090900256568888508F
:10360000202020024656F010204080F0123656E06E
:1036100080808080E0024656808040201010123664
:1036200056E020202020E016325240A0014151F007
:103630001622528040024454709090700246568088
:1036400080E09090E0123454608080600246561012
:10365000107090907002445460B0C06002465620D2
:103660005040E04040014555609070106002465661
:103670008080E09090901236564000C04040E011AB
:1036800037572000202020A040024656808090E03E
:103690009090123656C040404040E0025454D0A8AA
:1036A000A8A8024454E09090900244546090906026
:1036B000014555E090E080800145557090701010F4
:1036C000024454A0D0808012345460C020C002460E
:1036D000564040E040502002445490909070123484
:1036E00054A0A0A04002545488A8A850024454906A
:1036F0006060900145559090709060024454F020B5
:1037000040F0024757304020C020403022165680FB
:103710008080808080024757C02040304020C00613
:10372000425250A0FFFFFFFFFFFFFFFFFFFFFFFF21
:10373000FFFFFFFFFFFFFFFFFFFFFFFFFFFFFFFF99
:10374000FFFFFFFFFF090050221656800080808097
:10375000800146562070A0A070200246562050E0FE
:103760004050A002555588705070880256568850B7
:10377000F820F82022175780808000808080024740
:10378000577080E0907010E0173151A002565670CB
:10379000A8C8C8A87014355560A06000E003435362
:1037A00050A050123353E02020143151E0025656FD
:1037B00070E8D8E8D870173151E015335340A04075
:1037C00012355540E04000E014355540A02040E05F
:1037D000143555C020C020C01622524080014555E6
:1037E000909090E08002565678E8E86828282411E6
:1037F0005180112252408014355540C04040E014A1
:10380000355540A04000E0034353A050A002475765
:10381000808080A060F0200247578080A0D01020D8
:103820007002475780408060A0F02012365640005A
:103830004080A04002475740206090F0909002479F
:103840005720406090F0909002475760906090F051
:10385000909002475750A06090F090900247579088
:10386000006090F0909002475760906090F09090C8
:1038700002465670A0A0F0A0B0014757609080802B
:103880009060400247574020F080E080F0024757A8
:103890002040F080E080F00247576090F080E080A8
:1038A000F00247579000F080E080F01237578040D8
:1038B000E0404040E01237572040E0404040E012F6
:1038C000375740A0E0404040E0123757A000E040AA
:1038D0004040E00256567048E8484870024757504A
:1038E000A090D0B090900247574020609090906098
:1038F0000247572040609090906002475760906068
:103900009090906002475750A0609090906002475E
:103910005790006090909060123353A040A00246F0
:103920005670B0B0D0D0E0024757402090909090B1
:1039300060024757204090909090600247576090F7
:103940009090909060024757900090909090600205
:1039500057571020885020202002465680E0909033
:10396000E0800246566090A0A090A00247574020F9
:103970000070909070024757204000709090700245
:1039800047572050007090907002475750A0007029
:1039900090907002465650007090907002475760A9
:1039A000906070909070025454F068B07811355562
:1039B000608080604002475740200060B0C06002D5
:1039C000475720400060B0C06002475760900060D9
:1039D000B0C060024656500060B0C06012375780D9
:1039E0004000C04040E0123757204000C04040E057
:1039F00012375740A000C04040E0123656A000C029
:103A00004040E0024757A040A01070906002475726
:103A100050A000E0909090024757402000609090A6
:103A200060024757204000609090600247576090C6
:103A3000006090906002475750A000609090600234
:103A400046569000609090601235554000E000406E
:103A500002445470B0D0E00247574020009090904C
:103A60007002475720400090909070024757609036
:103A7000009090907002465690009090907001488F
:103A80005820400090907090600147578080E090EF
:103A9000E0808001475790009090709060000A1479
:103AA00000FC0D024A049920FFFC10FC0DFC0000F4
:103AB000000A0010020D0D0A0400C0C0C0C0C0C042
:103AC000C0C0C0C000C0C00604040A0209CCCCCCEF
:103AD00048090B160A01011B001B001B007F8036E2
:103AE0000036003600FF006C006C006C00080D0D05
:103AF0000A0100187EDBD8D8D87E1B1B1BDB7E1882
:103B0000090C180A01007300DB00DE0076000C00CF
:103B10000C001800180037003D806D806700090D0B
:103B20001A0A010038006C006C006C00780030004C
:103B30007000D800CD80C700C600EF007980020574
:103B4000050A0408C0C0C0C080050D0D0A03001896
:103B5000306060C0C0C0C0C060603018050D0D0A84
:103B60000200C06030301818181818303060C008D3
:103B700007070A010366663CFF3C66660807070AFA
:103B80000103181818FF1818180403030A03FF701C
:103B900070E00801010A0106FF0303030A0400E0C4
:103BA000E0E0070C0C0A020006060C0C1818303076
:103BB0006060C0C0080D0D0A0100183C6666C3C3F2
:103BC000C3C3C366663C18080D0D0A010018387897
:103BD000D81818181818181818FF080D0D0A010021
:103BE0003C66C3C30303061C3060C0C0FF080D0D54
:103BF0000A01003C66C3C303061C0603C3C3663C3C
:103C0000080D0D0A010002060E1E3666C6C6FF0626
:103C1000060606080D0D0A0100FFC0C0C0C0DCE6A4
:103C2000030303C3663C080D0D0A01003C66C2C0D5
:103C3000C0DCE6C3C3C3C3663C080D0D0A0100FF28
:103C4000030306060C0C181830306060080D0D0ACE
:103C500001003C66C3C3C3663C66C3C3C3663C087D
:103C60000D0D0A01003C66C3C3C3C3673B03034396
:103C7000663C0308080A0400E0E000000000E0E001
:103C80000409090A03FF7070000000007070E0076B
:103C90000D0D0A010002060C183060C06030180CCF
:103CA00006020806060A0103FF00000000FF070DD8
:103CB0000D0A020080C06030180C060C183060C07D
:103CC00080080D0D0A01003C66C3C3C3060C18181A
:103CD00018001818080D0D0A01003C66C3CFDFDB81
:103CE000DBDBDECCC0633E080D0D0A0100183C662C
:103CF00066C3C3C3FFC3C3C3C3C3080D0D0A01001A
:103D0000F8CCC6C6C6CCFCC6C3C3C3C6FC080D0DE2
:103D10000A01003C66C3C0C0C0C0C0C0C0C3663C8E
:103D2000080D0D0A0100FCC6C3C3C3C3C3C3C3C38C
:103D3000C3C6FC080D0D0A0100FFC0C0C0C0C0FC16
:103D4000C0C0C0C0C0FF080D0D0A0100FFC0C0C048
:103D5000C0C0FCC0C0C0C0C0C0080D0D0A01003CFE
:103D600066C3C0C0C0CFC3C3C3C3673D080D0D0A3F
:103D70000100C3C3C3C3C3C3FFC3C3C3C3C3C30817
:103D80000D0D0A0100FF181818181818181818181F
:103D900018FF090D1A0A01001F8006000600060020
:103DA00006000600060006000600C600C6006C00FD
:103DB0003800080D0D0A0100C3C3C6C6CCCCF8CC30
:103DC000CCC6C6C3C3080D0D0A0100C0C0C0C0C028
:103DD000C0C0C0C0C0C0C0FF080D0D0A0100C3C3F1
:103DE000E7E7FFDBDBDBDBC3C3C3C3080D0D0A0161
:103DF00000C3E3E3F3F3DBDBCFCFC7C7C3C3080DD7
:103E00000D0A01003C66C3C3C3C3C3C3C3C3C366B7
:103E10003C080D0D0A0100FCC6C3C3C3C3C6FCC0E9
:103E2000C0C0C0C0080E0E0A01FF3C66C3C3C3C3B6
:103E3000C3C3C3DBCF663E03080D0D0A0100FCC6F9
:103E4000C3C3C3C3C6FCCCC6C6C3C3080D0D0A0199
:103E5000003C66C3C0C0603C060303C3663C080D5B
:103E60000D0A0100FF181818181818181818181833
:103E700018080D0D0A0100C3C3C3C3C3C3C3C3C322
:103E8000C3C3663C080D0D0A0100C3C3C3C3666605
:103E9000663C3C3C181818080D0D0A0100C3C3C34A
:103EA000C3C3DBDBDBDBE7E7C3C3080D0D0A01009F
:103EB000C3C366663C3C183C3C6666C3C3080D0D34
:103EC0000A0100C3C366663C3C1818181818181875
:103ED000080D0D0A0100FF0303060C0C18303060BA
:103EE000C0C0FF060D0D0A0200FCC0C0C0C0C0C0AB
:103EF000C0C0C0C0C0FC070C0C0A0200C0C060609B
:103F0000303018180C0C0606060D0D0A0200FC0CC9
:103F10000C0C0C0C0C0C0C0C0C0CFC0804040A0112
:103F200009183C66C30901020A01FFFF800403036C
:103F30000A030AC060300808080A01003E63037FD4
:103F4000C3C3C37D080D0D0A0100C0C0C0C0C0DCE2
:103F5000E6C3C3C3C3E6DC0808080A01003E63C029
:103F6000C0C0C0633E080D0D0A0100030303030334
:103F70003B67C3C3C3C3673B0808080A01003C662C
:103F8000C3FFC0C0633E080D0D0A01001E3333306D
:103F900030FC30303030303030080C0C0A01FC7D01
:103FA000C7C6C6C67CC07EC3C3C37E080D0D0A014A
:103FB00000C0C0C0C0C0DCE6C3C3C3C3C3C3080BDA
:103FC0000B0A010018180078181818181818FF079D
:103FD0000F0F0A02FC0606001E0606060606060667
:103FE000C6C6C67C080D0D0A0100C0C0C0C0C0C650
:103FF000CCD8F0F8CCC6C3080D0D0A01007818180B
:10400000181818181818181818FF0808080A0100B6
:10401000B6FFDBDBDBDBDBDB0808080A0100DCE6E4
:10402000C3C3C3C3C3C30808080A01003C66C3C3B3
:10403000C3C3663C080C0C0A01FCDCE6C3C3C3C363
:10404000E6DCC0C0C0C0080C0C0A01FC3B67C3C35F
:10405000C3C3673B030303030808080A0100DE73B8
:104060006060606060600808080A01007EC3C07E6E
:104070000303C37E080B0B0A0100303030FC3030E4
:10408000303030331E0808080A0100C3C3C3C3C35D
:10409000C3673B0808080A0100C3C366663C3C18B6
:1040A000180808080A0100C3C3C3DBDBDBFF66088E
:1040B00008080A0100C3663C18183C66C3080C0CCB
:1040C0000A01FCC3C3C3C3C3C3673B03C3663C0746
:1040D00008080A0200FE060C183060C0FE080D0D2C
:1040E0000A01000F1818181818F018181818180FC7
:1040F000020D0D0A0400C0C0C0C0C0C0C0C0C0C016
:10410000C0C0C0080D0D0A0100F018181818180FCB
:104110001818181818F00803030A010A73DBCEFFF9
:10412000FFFFFFFFFFFFFFFFFFFFFFFFFFFFFFFF9F
:10413000FFFFFFFFFFFFFFFFFFFFFFFFFFFFFFFF8F
:104140000000000A0010020D0D0A0400C0C000C0EB
:10415000C0C0C0C0C0C0C0C0C0070C0C0A0100185D
:10416000183C66C2C0C0C2663C1818090C180A0187
:10417000001E003300330030003000FC00300030FF
:10418000003000F800AD80E7000909120A00018044
:1041900080DD807F006300630063007F00DD80803E
:1041A00080080B0B0A010081C3663C7E187E18183C
:1041B0001818020D0D0A0400C0C0C0C0C0000000E5
:1041C000C0C0C0C0C0080D0D0A01003C66C66078C2
:1041D000CC66331E0663663C0602020A020BCCCC98
:1041E000080B0B0A01003C66C3BDA5A1A5BDC366B3
:1041F0003C0809090A01043E43037FC3C37D00FF55
:10420000090B160A000004800D801B0036006C00AC
:10421000D8006C0036001B000D8004800804040ADE
:104220000104FFFF03030601010A0206FC080B0B51
:104230000A01003C66C3BDA5BDA9ADC3663C08012B
:10424000010A010DFF0606060A02073078CCCC7879
:10425000300807070A01021818FF181800FF0507A1
:10426000070A020670D8183060C0F80507070A026E
:104270000670D8183018D8700403030A030A306097
:10428000C0070A0A0A01FDC6C6C6C6C6EEFAC0C005
:10429000C0080D0D0A01007FFFFBFBFB7B1B1B1BF6
:1042A0001B1B1B1B0303030A0405E0E0E0050404D9
:1042B0000A02FC3018D8700407070A020660E060A2
:1042C000606060F00709090A0104386CC6C6C66C54
:1042D0003800FE090B160A01009000D8006C003669
:1042E000001B000D801B0036006C00D800900008F9
:1042F0000C0C0A010140C04142E40812264A9E0209
:1043000002080C0C0A010140C04142E40816294190
:1043100082040F080C0C0A0101E0106112E408127B
:10432000264A9F0202080D0D0A01001818001818ED
:10433000183060C3C3C3663C080F0F0A0100603029
:104340001800183C66C3C3C3FFC3C3C3C3080F0F21
:104350000A0100060C1800183C66C3C3C3FFC3C3A0
:10436000C3C3080F0F0A0100183C6600183C66C35F
:10437000C3C3FFC3C3C3C3080F0F0A0100327E4C7F
:1043800000183C66C3C3C3FFC3C3C3C3080F0F0AEF
:104390000100666600183C6666C3C3C3FFC3C3C39F
:1043A000C30810100A01003C66663C00183C66C356
:1043B000C3C3FFC3C3C3C3080D0D0A01001F3C6C78
:1043C0006CCCCCFFCCCCCCCCCCCF0811110A01FCEE
:1043D0003C66C3C0C0C0C0C0C0C0C3663C180C6C43
:1043E00038080F0F0A010060301800FFC0C0C0C0BD
:1043F000FCC0C0C0C0FF080F0F0A01000C1830003D
:10440000FFC0C0C0C0FCC0C0C0C0FF080F0F0A0181
:1044100000183C6600FFC0C0C0C0FCC0C0C0C0FFE8
:10442000080F0F0A010066660000FFC0C0C0C0FC94
:10443000C0C0C0C0FF060F0F0A020060301800FCA9
:10444000303030303030303030FC060F0F0A020090
:1044500018306000FC303030303030303030FC0606
:104460000F0F0A02003078CC00FC30303030303092
:10447000303030FC060F0F0A0200CCCC00FC30308C
:104480003030303030303030FC090D1A0A00007EF8
:104490000063006180618061806180F9806180617A
:1044A000806180618063007E00080F0F0A01003286
:1044B0007E4C00C3E3F3F3DBDBCFCFC7C3C3080FEE
:1044C0000F0A010030180C003C66C3C3C3C3C3C34A
:1044D000C3663C080F0F0A01000C1830003C66C38D
:1044E000C3C3C3C3C3C3663C080F0F0A0100183C13
:1044F00066003C66C3C3C3C3C3C3C3663C080F0F97
:104500000A0100327E4C003C66C3C3C3C3C3C3C3AD
:10451000663C080F0F0A01006666003C66C3C3C311
:10452000C3C3C3C3C3663C0708080A010082C66C44
:1045300038386CC682080F0F0A01FF013E66C7C7F4
:10454000CBCBCBD3D3D3E3667C80080F0F0A01001B
:1045500030180C00C3C3C3C3C3C3C3C3C3663C0882
:104560000F0F0A01000C183000C3C3C3C3C3C3C379
:10457000C3C3663C080F0F0A0100183C6600C3C3A2
:10458000C3C3C3C3C3C3C3663C080F0F0A0100669D
:104590006600C3C3C3C3C3C3C3C3C3C3663C080F5E
:1045A0000F0A01000C183000C3C366663C3C1818A3
:1045B000181818070D0D0A0200C0C0C0FCC6C6C6F8
:1045C000C6C6FCC0C0C0080D0D0A01001C366363DE
:1045D00066EC6C66636363666C080C0C0A01003061
:1045E000180C007EC3037FC3C3C37D080C0C0A01F3
:1045F000000C1830007EC3037FC3C3C37D080C0CBE
:104600000A0100183C66007EC3037FC3C3C37D0854
:104610000C0C0A0100327E4C007EC3037FC3C3C36F
:104620007D080B0B0A01006666007EC3037FC3C3CF
:10463000C37D080D0D0A01003C66663C007EC30385
:104640007FC3C3C37D0808080A0100769B1B1E7840
:10465000D8D96E080C0C0A01FC3E63C0C0C0C06310
:104660003E180C6C38080C0C0A0100603018003C35
:1046700066C3FFC0C0633E080C0C0A0100060C189C
:10468000003C66C3FFC0C0633E080C0C0A01001862
:104690003C66003C66C3FFC0C0633E080B0B0A01CA
:1046A000006666003C66C3FFC0C0633E080C0C0A8F
:1046B00001006030180078181818181818FF080C36
:1046C0000C0A01000C18300078181818181818FF78
:1046D000080C0C0A0100183C660078181818181805
:1046E00018FF080B0B0A01006666007818181818E6
:1046F0001818FF080D0D0A010088D87070D88C3E7C
:1047000067C3C3C3663C080C0C0A0100327E4C0030
:10471000DCE6C3C3C3C3C3C3080C0C0A010060308A
:1047200018003C66C3C3C3C3663C080C0C0A0100F6
:10473000060C18003C66C3C3C3C3663C080C0C0AD5
:104740000100183C66003C66C3C3C3C3663C080C4A
:104750000C0A0100327E4C003C66C3C3C3C3663CF6
:10476000080B0B0A01006666003C66C3C3C3C36640
:104770003C080A0A0A010118180000FFFF0000188F
:1047800018080A0A0A01FF013E66CBCBD3D3667C28
:1047900080080C0C0A010030180C00C3C3C3C3C34B
:1047A000C3673B080C0C0A0100060C1800C3C3C306
:1047B000C3C3C3673B080C0C0A0100183C6600C366
:1047C000C3C3C3C3C3673B080B0B0A010066660083
:1047D000C3C3C3C3C3C3673B0810100A01FC0C1852
:1047E0003000C3C3C3C3C3C3673B03C3663C0711E5
:1047F000110A02FCC0C0C0C0C0C0F8CCC6C6C6CC3E
:10480000F8C0C0C0C0080F0F0A01FC666600C3C331
:10481000C3C3C3C3673B03C3663C0000090A020865
:104820000B0C0D070603040100000000000000004F
:104830000000000000000000000000000000000078
:1048400000000000000011100F0000000000000038
:104850000000000000000000000000000000000058
:104860000102102020080810204010204080020182
:104870000201080402010102040810204080804067
:104880002010080402018004020180402010080466
:104890000201080402010102040810204080010204
:1048A00004081020408005050505070508080808CC
:1048B000020202020A0A08080404040401010101B8
:1048C00001010101030303030303030304070707B3
:1048D0000C0C0C0C0C0C0C0C020202020606060658
:1048E000060606060B0B0B0B0B0B0B0B0000200038
:1048F0002300260029002C002F00320000010000B8
:1049000003010601090100002200250028002B00F8
:104910002E003100340002010000050108010B01E6
:1049200000002100240027002A002D003000330061
:1049300001010000040107010A01024E414E494EE7
:10494000495459494E46CDCCCC3D0AD7233C17B7E4
:10495000D13877CC2B329595E6241FB14F0A000051
:1049600020410000C84200401C4620BCBE4CCA1B6F
:104970000E5AAEC59D749D702CDAC7E330DA11244F
:104980001FBECFEFD1E2DEBFCDBF00E00CBF14E011
:10499000A0E0B2E0E8E9F9EF01E00BBF02C0079048
:1049A0000D92AC3AB107D9F715E1ACEAB4E001C019
:1049B0001D92A43CB107E1F719E4CCE7D9E400E08B
:1049C00006C022970109FE010BBF0E9486F6C6377A
:1049D000D10780E00807A9F70E94E9ED0C94BBFC21
:1049E0000C94000028E00CC0A398880F3FB7F894FF
:1049F000909105019460909305013FBF215061F0B3
:104A00003FB7F894909105019B7F909305013FBFBC
:104A100087FFEACFA39AE9CF08958F929F92AF9232
:104A2000BF92CF92DF92EF92FF920F931F93CF939B
:104A3000DF93EB0149015A016701780120910102DE
:104A4000309102023093D5042093D4042091DC04E9
:104A50003091DD043093D3042093D20422E02093DC
:104A6000000222E53FE63093020220930102909378
:104A7000D1048093D0047093CF046093CE0420E0DF
:104A800030E048EC52E4C501B4010E9427F50E94D1
:104A9000C1F26093CA047093CB048093CC049093CA
:104AA000CD0420E030E048EC52E4C701B6010E949A
:104AB00027F50E94C1F26093C6047093C7048093E7
:104AC000C8049093C90420E030E048EC52E46881C7
:104AD00079818A819B810E9427F50E94C6F26093AA
:104AE000DC047093DD048093DE049093DF04DF9197
:104AF000CF911F910F91FF90EF90DF90CF90BF90DB
:104B0000AF909F908F900895CF93DF93EC01262F65
:104B10004AAD69AD04960E9477E629AD992787FDD5
:104B20009095820F911D89AF81E090E0DF91CF9148
:104B300008957F928F929F92AF92BF92CF92DF9211
:104B4000EF92FF920F931F93CF93DF935C017B0152
:104B5000942E69018AE0481709F466C0A5E14A135A
:104B60003DC0DB011296ED91FC9113978280C681C6
:104B7000D781A49A0E94ECEA80E2782E780C88EF24
:104B800031DF0E94ECEABFE1B81508F43AC0882D85
:104B90008077806827DF882D8295807F23DF0E94C1
:104BA000ECEA80E81FDF80E01DDF0E94ECEA8AEF7C
:104BB00019DF0E94ECEA8E01005F1F4F8881807F21
:104BC00011DF89918295807F0DDFC017D107B1F782
:104BD0000E94ECEA83948710D2CFA4989601492DC5
:104BE000B701C501DF91CF911F910F91FF90EF9019
:104BF000DF90CF90BF90AF909F908F907F900C945C
:104C0000A1EA10EE180D812F80778068EBDE812FEE
:104C10008295807FE7DE0E94ECEA80E8E3DE80E8B0
:104C2000E1DE0E94ECEAC3CF9C9AA4989B9AA398D9
:104C3000809104018460809304019FB7F89480916F
:104C400005018460809305019FBFA49A0E94ECEA4D
:104C50008AE590E00E94E2EA88EFC4DE0E94ECEA76
:104C600080E0C0DE80E8BEDE0E94ECEA80E0BADED2
:104C700080E1B8DE0E94ECEA8AE090E00E94E2EA7D
:104C800080E3B0DE80EEAEDE0E94ECEAD0E08D2F55
:104C900080778068A7DE8D2F8295807FA3DE0E94BB
:104CA000ECEA80E89FDE80E09DDE0E94ECEA8AEF7D
:104CB00099DE0E94ECEAC0E280E094DE80E092DEC1
:104CC0000E94ECEAC150C1F788EF8CDE0E94ECEA4A
:104CD000DF5FD032E1F680E085DE80EC83DE0E948B
:104CE000ECEAA4987BCFCF93DF93EC012196FC01F3
:104CF0006491662349F087EE94E00E94E2EDFE01A4
:104D0000649121966111F7CFDF91CF91089582E0F0
:104D1000809300020E944EEB6C507E4F8F4F9F4F4E
:104D20006093E1047093E2048093E3049093E404BD
:104D30006E9A20E030E0A90167E174E08FE40E9400
:104D4000F5ED6AE070E080E090E00E947DEB8FE49A
:104D50000C9406F16091C0047091C1048091C2046A
:104D60009091C3040E945D7C609340027093410265
:104D700080934202909343020C9419726091BC0498
:104D80007091BD048091BE049091BF040E94697C23
:104D900060933C0270933D0280933E0290933F02E9
:104DA0000C94197291E0811101C090E0892F08954F
:104DB0000895089544E150E0BC0181E192E00E9431
:104DC00067F982E0809300020895209101023091FA
:104DD00002023093D5042093D4042091DC04309156
:104DE000DD043093D3042093D20422E02093000208
:104DF00024EF37E530930202209301029093D1040F
:104E00008093D0047093CF046093CE0481E090E04F
:104E1000A0E0B0E08093CA049093CB04A093CC04AC
:104E2000B093CD048EED93E0A0E0B0E08093C60493
:104E30009093C704A093C804B093C904FB01608198
:104E40007181828193810E94F2F22AE037ED43E280
:104E50005CE30E9427F50E94C6F26093DC04709325
:104E6000DD048093DE049093DF0487EA96E9909353
:104E7000C5048093C4040895209101023091020278
:104E80003093D5042093D4042091DC043091DD04C8
:104E90003093D3042093D20422E02093000228E22E
:104EA00039E530930202209301029093D10480935C
:104EB000D0047093CF046093CE0482E390E0A0E02E
:104EC000B0E08093CA049093CB04A093CC04B09339
:104ED000CD0486E996E8A1E0B0E08093C604909303
:104EE000C704A093C804B093C90420E030E040E2B6
:104EF00051E4FB0160817181828193810E9427F5D9
:104F00000E94C6F26093DC047093DD048093DE049B
:104F10009093DF040895FC011382128280E193E0F4
:104F20009183808311AE12AE13AECF0104960C9420
:104F300049E9FC0161AF42AF0895EF92FF920F93F0
:104F40001F93CF93DF93EB01E42E8901F9010190C8
:104F50000020E9F7F22EFE1A94E1F90E90E0019696
:104F6000482F440F480F440F440F60E087EE94E051
:104F7000E0DF6E2D87EE94E00E94E2EDFE01649189
:104F8000662351F087EE94E00E94E2ED2196FA94B8
:104F9000FE0164916111F6CF6AE387EE94E00E940E
:104FA000E2EDFF2041F0CF2D60E287EE94E00E9419
:104FB000E2EDC150C9F7B80187EE94E0DF91CF91DF
:104FC0001F910F91FF90EF900C94E1EDFF920F93E2
:104FD0001F93CF93DF93D82FC62F8A01CA010E9457
:104FE00046F991E1F92EF81A2D2F30E02F5F3F4F4F
:104FF000422F440F420F440F440F60E087EE94E0CD
:1050000098DF6C2F87EE94E00E94E2EDECEBF4E089
:105010006491662359F0EF0187EE94E00E94E2ED7F
:105020002196FA94FE0164916111F6CF6AE387EE4E
:1050300094E00E94E2EDFF2041F0CF2D60E287EE88
:1050400094E00E94E2EDC150C9F7C801DF91CF9111
:105050001F910F91FF9047CECF93DF93FC0183AD5B
:10506000EF012496811105C081E083AFCE010E943B
:1050700039E9CE01DF91CF910C9458E904960C9454
:105080005CE90F931F93CF93DF931F92CDB7DEB7E9
:10509000FC0183AD8F010C5F1F4F811107C081E0C0
:1050A00083AFC80169830E9439E96981C8010F9003
:1050B000DF91CF911F910F910C946AE904960C94A3
:1050C00086E904960C946FE90F9304960E94A9E771
:1050D0000F9108950F9304960E94F9E70F91089598
:1050E000EF92FF920F931F93CF93DF93F82EEB0174
:1050F000142FE22E61E087EE94E04E3309F45CC099
:105100004B3F09F448C0DADF8F2D90E00196482F1D
:10511000440F480F440F440F60E087EE94E009DF2E
:10512000612F87EE94E00E94E2EDFE016491662318
:1051300009F465C011E101C0182F87EE94E00E94C8
:10514000E2ED21968FEF810FFE0164916111F4CFA2
:10515000CEEFC10F811102C00AC0C82F60E287EEF6
:1051600094E00E94E2ED8FEF8C0FC111F6CF6E2D0F
:1051700087EE94E00E94E2ED60E287EE94E00E9408
:10518000E2ED61E087EE94E0DF91CF911F910F9106
:10519000FF90EF9093CF92DF4F2D440F4F0D440FB0
:1051A000440F4D5F0CE020E860E087EE94E092DF72
:1051B00060E087EE94E0A7CF81DF4F2D440F4F0DC5
:1051C000440F440F4D5F0CE020E860E087EE94E070
:1051D00081DF60E087EE94E071DF8F2D90E0019633
:1051E000482F440F480F440F440F60E087EE94E0CF
:1051F000A0DE60E287EE94E00E94E2ED96CFC0E18F
:10520000ADCF3F924F925F926F927F928F929F921B
:10521000AF92BF92CF92DF92EF92FF920F931F93C4
:10522000CF93DF9300D01F92CDB7DEB7C090DC04E0
:10523000D090DD04E090DE04F090DF0481E0C81639
:1052400080E8D806E104F10408F0EBC2C701B6011A
:1052500025E030E040E050E00E9442F64090E50456
:10526000842D90E0A0E0B0E0281739074A075B07DB
:1052700018F42093E504422E1091E60412FB112746
:1052800010F9312C35E0832E912CA12CB12C59C072
:105290008091BB1181117CC0F1E04F1609F464C10B
:1052A000F2E04F1609F4BFC0C090DC04D090DD04DA
:1052B000E090DE04F090DF04C701B601A50194017F
:1052C0000E9442F68091BC11882309F49FC080910E
:1052D0008A1329833A834B835C8364DD29813A8175
:1052E0004B815C81882309F4EAC08091BB1188233B
:1052F00009F49DC183E0481609F441C2F4E04F1659
:1053000009F4D9C1F8E1E0E070E060E085E090E008
:10531000A0E0B0E0281739074A075B0760F0F09378
:10532000DC04E093DD047093DE046093DF04CF2E91
:10533000DE2EE72EF62E3394439484E0831508F492
:10534000F7C0411020C080910002882369F02BEF44
:10535000E5E0CE16D104E104F10408F0FFC04BEF04
:1053600066E177E0832DBCDE112369F08091DC04D7
:105370009091DD04A091DE04B091DF040597A105B2
:10538000B10508F463C20E949796882309F480CF80
:10539000E1E04E1285CF809100028823C1F0609138
:1053A000DC047091DD048091DE049091DF04A5019E
:1053B00094010E9442F6213031054105510509F45E
:1053C00026C22AEF40E261E177E0832D89DE1123D6
:1053D00009F46ACF6090DC047090DD040091DE0473
:1053E0005090DF04B301802F952DA50194010E94F8
:1053F00042F6213031054105510509F44DC26301E2
:10540000E02EF52C8091BC11811161CF83E048160C
:1054100009F4FDC0F3E1E0E070E060E084E090E0DA
:10542000A0E0B0E077CF809100028823C1F06091C6
:10543000DC047091DD048091DE049091DF04A5010D
:1054400094010E9442F6223031054105510509F4CC
:105450008FC12AEF40E261E077E0832D41DE112326
:1054600009F4C6C05090DC046090DD047090DE0446
:105470000091DF04652D762D872D902FA5019401D5
:105480000E9442F6223031054105510509F4F4C16C
:10549000C52CD62CE72CF02E8091BC11882309F462
:1054A000B9CF80918A1329833A834B835C837ADC5A
:1054B00029813A814B815C81811117CFABCFF3E019
:1054C0004F12A8CF809100028823D1F023303105FC
:1054D0004105510509F4B4C12AEF40E26FEC76E0D2
:1054E000832DFEDDC090DC04D090DD04E090DE046E
:1054F000F090DF04C701B601A50194010E9442F6B5
:10550000112309F487CF233031054105510509F0F6
:1055100081CFFDDB8DEB92E3909302028093010239
:105520001092DC041092DD041092DE041092DF046D
:105530000F900F900F900F90DF91CF911F910F91CF
:10554000FF90EF90DF90CF90BF90AF909F908F90A3
:105550007F906F905F904F903F90089540E266E19A
:1055600077E0832DBDDD00CF809100028823C1F05C
:105570006091DC047091DD048091DE049091DF0481
:10558000A50194010E9442F62130310541055105E3
:1055900009F436C12AEF40E269E077E0832DA0DD0F
:1055A000112309F481CE6090DC047090DD04009139
:1055B000DE045090DF04B301802F952DA5019401E6
:1055C0000E9442F6213031054105510509F017CFFF
:1055D0009EDB80EF97E3909302028093010210928A
:1055E000DC041092DD041092DE041092DF04A0CFE0
:1055F000C090DC04D090DD04E090DE04F090DF0485
:10560000C701B601A50194010E9442F645CF8091E1
:105610000002882309F474CF233031054105510578
:1056200009F4FCC02AEF40E267EC76E059CFE3E0F2
:105630004E1264CE809100028823D1F023303105D0
:105640004105510509F412C120E240E268EE76E01E
:10565000832D46DDC090DC04D090DD04E090DE04B4
:10566000F090DF04C701B601A50194010E9442F643
:10567000112309F447CE233031054105510509F0C6
:1056800041CE45DB89EB91E10F900F900F900F9089
:10569000DF91CF911F910F91FF90EF90DF90CF900E
:1056A000BF90AF909F908F907F906F905F904F9042
:1056B0003F900C942C9D809100028823D1F02430DF
:1056C00031054105510509F4BEC020E240E26DED0F
:1056D00076E0832D05DDC090DC04D090DD04E09001
:1056E000DE04F090DF04C701B601A50194010E9419
:1056F00042F6112309F406CE243031054105510547
:1057000009F000CE04DB1092BB1160E089EB91E15F
:105710000E9499A30E942D8487EA96E00E9491B787
:1057200080910B0D882309F403CF10920B0D00918B
:10573000831110E0000F111F0555184FF80160810B
:105740007181882777FD8095982F0E94F4F220912F
:1057500055023091560240915702509158020E94D2
:1057600055F418160CF0E4CEF80111821082E0CE48
:105770002AEF4EE361E077E0832DB2DC70CE8091BA
:1057800000028823D1F0233031054105510509F489
:1057900070C020E240E265EF76E0832DA1DCC0908E
:1057A000DC04D090DD04E090DE04F090DF04C7015B
:1057B000B601A50194010E9442F6112309F4A2CD7D
:1057C000233031054105510509F09CCDA0DA89EB64
:1057D00091E10F900F900F900F90DF91CF911F915B
:1057E0000F91FF90EF90DF90CF90BF90AF909F9080
:1057F0008F907F906F905F904F903F900C94339D6F
:105800002AEF4EE369E077E0832D6ADCC9CE2AEF08
:105810004EE361E177E0832D63DCD9CD2AEF4EE3DF
:1058200003CF1092DC041092DD041092DE0410927B
:10583000DF0420E030E0A901C12CD12C76010ECD8F
:105840002AEF4EE34BCE20E24EE341CF60DA80EA0E
:1058500091E590930202809301021092DC04109271
:10586000DD041092DE041092DF0462CE20E24EE3EB
:10587000EDCE20E24EE38FCF4ADA8CE59CE29093A6
:105880000202809301021092DC041092DD04109257
:10589000DE041092DF044CCE3ADA87EE9CE490935B
:1058A0000202809301021092DC041092DD04109237
:1058B000DE041092DF043CCE4F925F926F927F9293
:1058C0008F929F92AF92BF92CF92DF92EF92FF9210
:1058D0000F931F93CF93DF93C090DC04D090DD042F
:1058E000E090DE04F090DF0481E0C81680E8D8067E
:1058F000E104F10408F045C1C701B60125E030E03C
:1059000040E050E00E9442F6C091E5048C2F90E008
:10591000A0E0B0E0281739074A075B0718F4209386
:10592000E504C22F1091E60412FB112710F9D0E014
:1059300065E0862E912CA12CB12C7DE1472E512CB7
:10594000612C712C01E0C11142C0809100028823BA
:10595000A9F02BEF85E0C816D104E104F10408F0AA
:10596000E4C04BEF62EA76E08D2FBADBC090DC0436
:10597000D090DD04E090DE04F090DF04112339F0D4
:1059800085E0C816D104E104F10408F409C18EE1F0
:10599000C816D104E104F10408F069C0C701B601DA
:1059A000A50194010E9442F6422F8091E50490E007
:1059B0000496821793070CF072C0CCEFC40FC0930B
:1059C000E50400930002D0E0CC2309F4BECFC1303F
:1059D00009F06BC0809100028823D1F0C701B601A5
:1059E000A50194010E9442F621303105410551057F
:1059F00009F4A9C02AEF40E266E976E08D2F70DB5A
:105A0000C090DC04D090DD04E090DE04F090DF0470
:105A1000112309F4BCCFC701B601A50194010E946E
:105A200042F6213031054105510509F0B0CF6FD95B
:105A300089E196E690930202809301021092DC04C1
:105A40001092DD041092DE041092DF04DF91CF91FA
:105A50001F910F91FF90EF90DF90CF90BF90AF908C
:105A60009F908F907F906F905F904F90089540929D
:105A7000DC045092DD046092DE047092DF0425E0C5
:105A800030E045E05DE1C52ED12CE12CF12C809178
:105A9000E50490E00496821793070CF48ECFDF5F45
:105AA000CF5FD53008F44FCFD1CFC23009F088C0D6
:105AB000809100028823D1F0C701B601A5019401AD
:105AC0000E9442F6223031054105510509F44AC0D1
:105AD0002AEF40E26FE876E08D2F02DBC090DC0415
